:100000001AC834C833C832C831C888C92FC82EC8E6
:100010002DC82CC810C92AC829C828C827C84040DC
:1000200040404141414142424242434343434444B0
:100030004444454545454646464647474747484860
:100040004848494949494A4A4A4A4B4B4B4B4C4C10
:100050004C4C4D4D4D4D4E4E4E4E4F4F4F4F5050C0
:100060005050515151515252525253535353545470
:100070005454555555555656565657575757585820
:100080005858595959595A5A5A5A5B5B5B5B5C5CD0
:100090005C5C5D5D5D5D5E5E5E5E5F5F5F5F606080
:1000A0006060616161616262626263636363646430
:1000B00064646565656566666666676767676868E0
:1000C0006868696969696A6A6A6A6B6B6B6B6C6C90
:1000D0006C6C6D6D6D6D6E6E6E6E6F6F6F6F707040
:1000E00070707171717172727272737373737474F0
:1000F00074747575757576767676777777777878A0
:100100007878797979797A7A7A7A7B7B7B7B7C7C4F
:100110007C7C7D7D7D7D7E7E7E7E7F7F7F7F7F7F01
:100120007F7F7E7E7E7E7D7D7D7D7C7C7C7C7B7BFF
:100130007B7B7A7A7A7A797979797878787877772F
:10014000777776767676757575757474747473735F
:1001500073737272727271717171707070706F6F8F
:100160006F6F6E6E6E6E6D6D6D6D6C6C6C6C6B6BBF
:100170006B6B6A6A6A6A69696969686868686767EF
:10018000676766666666656565656464646463631F
:1001900063636262626261616161606060605F5F4F
:1001A0005F5F5E5E5E5E5D5D5D5D5C5C5C5C5B5B7F
:1001B0005B5B5A5A5A5A59595959585858585757AF
:1001C00057575656565655555555545454545353DF
:1001D00053535252525251515151505050504F4F0F
:1001E0004F4F4E4E4E4E4D4D4D4D4C4C4C4C4B4B3F
:1001F0004B4B4A4A4A4A494949494848484847476F
:10020000474746464646454545454444444443439E
:1002100043434242424241414141404040407F7F4E
:100220007F7F7F7F7F7F7F7F7F7F7F7F7F7F7F7FDE
:100230007F7F7F7F7F7F7F7F7F7F7F7F7F7F7F7FCE
:100240007F7F7F7F7F7F7F7F7F7F7F7F7F7F7F7FBE
:100250007F7F7F7F7F7F7F7F7F7F7F7F7F7F7F7FAE
:100260007F7F7F7F7F7F7F7F7F7F7F7F7F7F7F7F9E
:100270007F7F7F7F7F7F7F7F7F7F7F7F7F7F7F7F8E
:100280007F7F7F7F7F7F7F7F7F7F7F7F7F7F7F7F7E
:100290007F7F7F7F7F7F7F7F7F7F7F7F7F7F7F7F6E
:1002A0007F7F7F7F7F7F7F7F7F7F7F7F7F7F7F7F5E
:1002B0007F7F7F7F7F7F7F7F7F7F7F7F7F7F7F7F4E
:1002C0007F7F7F7F7F7F7F7F7F7F7F7F7F7F7F7F3E
:1002D0007F7F7F7F7F7F7F7F7F7F7F7F7F7F7F7F2E
:1002E0007F7F7F7F7F7F7F7F7F7F7F7F7F7F7F7F1E
:1002F0007F7F7F7F7F7F7F7F7F7F7F7F7F7F7F7F0E
:100300007F7F7F7F7F7F7F7F7F7F7F7F7F7F7F7FFD
:100310007F7F7F7F7F7F7F7F7F7F7F7F7F7F7F7FED
:100320007F7F7F7F7F7F7F7F7F7F7F7F7F7F7F7FDD
:100330007F7F7F7F7F7F7F7F7F7F7F7F7F7F7F7FCD
:100340007F7F7F7F7F7F7F7F7F7F7F7F7F7F7F7FBD
:100350007F7F7F7F7F7F7F7F7F7F7F7F7F7F7F7FAD
:100360007F7F7F7F7F7F7F7F7F7F7F7F7F7F7F7F9D
:100370007F7F7F7F7F7F7F7F7F7F7F7F7F7F7F7F8D
:100380007F7F7F7F7F7F7F7F7F7F7F7F7F7F7F7F7D
:100390007F7F7F7F7F7F7F7F7F7F7F7F7F7F7F7F6D
:1003A0007F7F7F7F7F7F7F7F7F7F7F7F7F7F7F7F5D
:1003B0007F7F7F7F7F7F7F7F7F7F7F7F7F7F7F7F4D
:1003C0007F7F7F7F7F7F7F7F7F7F7F7F7F7F7F7F3D
:1003D0007F7F7F7F7F7F7F7F7F7F7F7F7F7F7F7F2D
:1003E0007F7F7F7F7F7F7F7F7F7F7F7F7F7F7F7F1D
:1003F0007F7F7F7F7F7F7F7F7F7F7F7F7F7F7F7F0D
:100400007F7F7F7F7F7F7F7F7F7F7F7F7F7F7F7FFC
:100410007F7F7F7F7F7F7F7F7F7F7F7F7F7F40406A
:1004200040404040404041414141414141414242C0
:100430004242424242424343434343434343444490
:100440004444444444444545454545454545464660
:100450004646464646464747474747474747484830
:1004600048484848484849494949494949494A4A00
:100470004A4A4A4A4A4A4B4B4B4B4B4B4B4B4C4CD0
:100480004C4C4C4C4C4C4D4D4D4D4D4D4D4D4E4EA0
:100490004E4E4E4E4E4E4F4F4F4F4F4F4F4F505070
:1004A0005050505050505151515151515151525240
:1004B0005252525252525353535353535353545410
:1004C00054545454545455555555555555555656E0
:1004D00056565656565657575757575757575858B0
:1004E00058585858585859595959595959595A5A80
:1004F0005A5A5A5A5A5A5B5B5B5B5B5B5B5B5C5C50
:100500005C5C5C5C5C5C5D5D5D5D5D5D5D5D5E5E1F
:100510005E5E5E5E5E5E5F5F5F5F5F5F5F5F6060EF
:1005200060606060606061616161616161616262BF
:10053000626262626262636363636363636364648F
:10054000646464646464656565656565656566665F
:10055000666666666666676767676767676768682F
:1005600068686868686869696969696969696A6AFF
:100570006A6A6A6A6A6A6B6B6B6B6B6B6B6B6C6CCF
:100580006C6C6C6C6C6C6D6D6D6D6D6D6D6D6E6E9F
:100590006E6E6E6E6E6E6F6F6F6F6F6F6F6F70706F
:1005A000707070707070717171717171717172723F
:1005B000727272727272737373737373737374740F
:1005C00074747474747475757575757575757676DF
:1005D00076767676767677777777777777777878AF
:1005E00078787878787879797979797979797A7A7F
:1005F0007A7A7A7A7A7A7B7B7B7B7B7B7B7B7C7C4F
:100600007C7C7C7C7C7C7D7D7D7D7D7D7D7D7E7E1E
:100610007E7E7E7E7E7E7F7F7F7F7F7F7F7F40406E
:100620004041414142424343434444454545464697
:1006300046474748484849494A4A4A4B4B4C4C4C24
:100640004D4D4D4E4E4F4F4F5050505151525252B2
:100650005353535454555555565656575757585843
:100660005959595A5A5A5B5B5B5C5C5C5D5D5D5ED7
:100670005E5E5F5F5F606060616161626262636372
:10068000636464646565656666666767676768680E
:10069000686969696A6A6A6A6B6B6B6C6C6C6C6DB1
:1006A0006D6D6D6E6E6E6F6F6F6F7070707071715B
:1006B000717172727272737373737374747474750C
:1006C00075757575767676767677777777777878C5
:1006D000787878787979797979797A7A7A7A7A7A88
:1006E0007A7B7B7B7B7B7B7B7C7C7C7C7C7C7C7C53
:1006F0007C7D7D7D7D7D7D7D7D7D7D7E7E7E7E7E26
:100700007E7E7E7E7E7E7E7E7E7E7F7F7F7F7F7F03
:100710007F7F7F7F7F7F7F7F7F7F7F7F7F7F7F7FE9
:100720007F7F7F7F7F7F7F7F7F7F7F7F7F7F7F7FD9
:100730007F7F7F7E7E7E7E7E7E7E7E7E7E7E7E7ED6
:100740007E7E7D7D7D7D7D7D7D7D7D7D7C7C7C7CDB
:100750007C7C7C7C7C7B7B7B7B7B7B7B7A7A7A7AE8
:100760007A7A7A79797979797978787878787877FE
:10077000777777777676767676757575757574741E
:100780007474737373737372727272717171717046
:100790007070706F6F6F6F6E6E6E6D6D6D6D6C6C77
:1007A0006C6C6B6B6B6A6A6A6A69696968686867AE
:1007B00067676766666665656564646463636362EC
:1007C00062626161616060605F5F5F5E5E5E5D5D31
:1007D0005D5C5C5C5B5B5B5A5A5A59595958585777
:1007E00057575656565555555454535353525252C3
:1007F00051515050504F4F4F4E4E4D4D4D4C4C4C13
:100800004B4B4A4A4A494948484847474646464565
:100810004545444443434342424141414040240012
:1008200024002400240024002500250025002500A4
:100830002500260026002600260026002700270087
:10084000270027002700280028002800280029006A
:1008500029002900290029002A002A002A002A004C
:100860002B002B002B002B002C002C002C002C002C
:100870002D002D002D002D002D002E002E002E000D
:100880002E002F002F002F003000300030003000ED
:1008900031003100310031003200320032003200CC
:1008A00033003300330034003400340034003500AA
:1008B0003500350036003600360036003700370088
:1008C00037003800380038003900390039003A0064
:1008D0003A003A003B003B003B003B003C003C0040
:1008E0003C003D003D003D003E003E003E003F001C
:1008F0003F003F00400040004100410041004200F5
:1009000042004200430043004300440044004500CD
:1009100045004500460046004600470047004800A5
:1009200048004800490049004A004A004A004B007C
:100930004B004C004C004C004D004D004E004E0052
:100940004F004F004F005000500051005100520026
:1009500052005200530053005400540055005500FB
:1009600056005600570057005800580059005900CB
:100970005A005A005A005B005B005C005C005D009E
:100980005D005E005F005F0060006000610061006C
:10099000620062006300630064006400650065003B
:1009A00066006700670068006800690069006A0007
:1009B0006B006B006C006C006D006D006E006F00D2
:1009C0006F0070007000710072007200730074009C
:1009D0007400750076007600770077007800790063
:1009E00079007A007B007B007C007D007D007E002A
:1009F0007F007F00800081008200820083008400ED
:100A000084008500860087008700880089008A00AE
:100A10008A008B008C008D008D008E008F0090006E
:100A2000900091009200930094009400950096002D
:100A300097009800990099009A009B009C009D00E7
:100A40009E009E009F00A000A100A200A300A400A1
:100A5000A500A500A600A700A800A900AA00AB0059
:100A6000AC00AD00AE00AF00B000B100B200B3000A
:100A7000B400B400B500B600B700B800B900BA00C1
:100A8000BB00BD00BE00BF00C000C100C200C3006B
:100A9000C400C500C600C700C800C900CA00CB001A
:100AA000CD00CE00CF00D000D100D200D300D400C2
:100AB000D600D700D800D900DA00DB00DD00DE0068
:100AC000DF00E000E100E300E400E500E600E8000C
:100AD000E900EA00EC00ED00EE00EF00F100F200AA
:100AE000F300F500F600F700F900FA00FB00FD0046
:100AF000FE00FF00010102010401050106010801D9
:100B000009010B010C010E010F0111011201140169
:100B10001501170118011A011B011D011E012001F9
:100B20002101230125012601280129012B012D0185
:100B30002E013001320133013501370138013A010C
:100B40003C013D013F01410143014401460148018F
:100B50004A014B014D014F0151015301550156010D
:100B600058015A015C015E01600162016401660185
:100B7000680169016B016D016F01710173017501FC
:100B800077017A017C017E01800182018401860166
:100B900088018A018C018F019101930195019701D0
:100BA0009A019C019E01A001A201A501A701A90132
:100BB000AC01AE01B001B301B501B701BA01BC018E
:100BC000BF01C101C301C601C801CB01CD01D001E4
:100BD000D201D501D801DA01DD01DF01E201E40132
:100BE000E701EA01EC01EF01F201F401F701FA017A
:100BF000FD01FF010202050208020B020D021002B4
:100C00001302160219021C021F02220225022802E8
:100C10002B022E023102340237023A023D02400218
:100C2000430246024A024D025002530256025A0241
:100C30005D026002640267026A026E02710274025F
:100C400078027B027F028202860289028D02900274
:100C5000940297029B029F02A202A602AA02AD0280
:100C6000B102B502B902BC02C002C402C802CC0281
:100C7000D002D302D702DB02DF02E302E702EB027B
:100C8000EF02F402F802FC020003040308030D0360
:100C90001103150319031E03220326032B032F033D
:100CA000340338033C03410345034A034F03530312
:100CB00058035C03610366036B036F0374037903DA
:100CC0007E03830387038C03910396039B03A00396
:100CD000A503AA03B003B503BA03BF03C403C90342
:100CE000CF03D403D903DF03E403E903EF03F403E1
:100CF000FA03FF0305040B04100416041B0421046B
:100D000027042D04330438043E0444044A045004E8
:100D100056045C04620468046E0475047B04810458
:100D200087048D0494049A04A104A704AD04B404B8
:100D3000BB04C104C804CE04D504DC04E304E90404
:100D4000F004F704FE0405050C0513051A0521053A
:100D500028052F0537053E0545054C0554055B055F
:100D600063056A0572057905810588059005980572
:100D7000A005A705AF05B705BF05C705CF05D70572
:100D8000DF05E805F005F8050006090611061A0654
:100D900022062B0633063C0644064D0656065F0621
:100DA00068067006790682068B0695069E06A706DB
:100DB000B006B906C306CC06D606DF06E906F2067B
:100DC000FC0606070F07190723072D0737074107FA
:100DD0004B07550760076A0774077E078907930763
:100DE0009E07A807B307BE07C907D307DE07E907B1
:100DF000F407FF070A08160821082C0837084308DB
:100E00004E085A08660871087D0889089508A108E7
:100E1000AD08B908C508D108DD08EA08F6080209D6
:100E20000F091B092809350942094F095B0969099E
:100E30007609830990099D09AB09B809C609D30948
:100E4000E109EF09FC090A0A180A260A340A430ACA
:100E5000510A5F0A6E0A7C0A8B0A990AA80AB70A25
:100E6000C60AD50AE40AF30A020B110B210B300B58
:100E7000400B4F0B5F0B6F0B7F0B8F0B9F0BAF0B61
:100E8000BF0BD00BE00BF10B010C120C230C340C3C
:100E9000450C560C670C780C890C9B0CAC0CBE0CEA
:100EA000D00CE10CF30C050D170D2A0D3C0D4E0D69
:100EB000610D730D860D990DAC0DBF0DD20DE50DB5
:100EC000F80D0C0E1F0E330E470E5B0E6F0E830EC9
:100ED000970EAB0EC00ED40EE90EFD0E120F270FAB
:100EE0003C0F510F670F7C0F920FA70FBD0FD30F51
:100EF000E90FFF0F15102C10421059106F108610BB
:100F00009D10B410CC10E310FA1012112A114211E6
:100F10005A1172118A11A211BB11D411EC110512D0
:100F20001E12371251126A1284129E12B712D21276
:100F3000EC12061320133B13561371138C13A713D3
:100F4000C213DE13F913151431144D1469148614E9
:100F5000A214BF14DC14F9141615331551156E15AF
:100F60008C15AA15C815E615051623164216611626
:100F700080169F16BF16DF16FE161E173E175F1748
:100F80007F17A017C117E21703182418461868180E
:100F90008A18AC18CE18F0181319361959197C197B
:100FA000A019C319E7190B1A2F1A541A781A9D1A87
:100FB000C21AE71A0D1B321B581B7E1BA41BCB1B2E
:100FC000F11B181C3F1C671C8E1CB61CDE1C061D6A
:100FD0002E1D571D801DA91DD21DFB1D251E4F1E38
:100FE000791EA31ECE1EF91E241F4F1F7B1FA61F96
:100FF000D21FFF1F2B2058208520B220DF200D217B
:101000003B2169219821C621F521252254228422E1
:10101000B422E422142345237623A823D9230102F2
:101020000408102002020202020200000000380040
:1010300000000000370011241FBECFE5D2E0DEBF64
:10104000CDBF10E0A0E6B0E0E8EDF4E102C005900D
:101050000D92A236B107D9F720E0A2E6B0E001C0B8
:101060001D92A638B207E1F72FD234C2C9C7CF9379
:1010700087B5826087BD84E690E09AD107B400FE10
:10108000FDCF87B5846087BD10BE1FBCC2E0CCBD5C
:1010900081E780BF8FEF8DBD80E88EBD61E081E08C
:1010A000C4D18EE196E090937300809372002EE19C
:1010B00030E030937500209374002EE132E03093DD
:1010C0007700209376002EE134E03093790020936E
:1010D000780090937B0080937A0013BE12BECABD45
:1010E00081E083BF8FE989BD89B7806189BF60E0F6
:1010F00080E89BD160E081E898D160E082E895D1FA
:1011000060E083E892D117B861E080E08ED181E0A1
:1011100090E090936B0080936A00909367008093B7
:101120006600CF91089520916000922F9170892FD1
:101130008195982F987B822F8695892780936000D0
:101140000895EF92FF921F93CF93DF9380916500F4
:101150004DD1EC0110916500113059F190F0123031
:1011600009F452C0133009F05AC0FC01EE0FFF1F02
:10117000E25EF74F8591949190936B0080936A00A3
:101180004EC0C13083E0D80708F449C080916400A4
:10119000815080936400811142C0C5DF8093640058
:1011A000282F30E0D3502C173D07C8F580936300FB
:1011B00036C0CC0FCD2FCC1FDD0BD195E091630055
:1011C000CE0FEC2FE770E0936200F0E0F595E79525
:1011D000DF01AA0FBB1FAE58BF4F8D919C9190931A
:1011E000710080937000C0FBEE24E0F8F12CEE0D4E
:1011F000FF1DEE0FFF1FEE58FF4F808191819093EE
:101200006F0080936E000BC0FC01EE0FFF1FE25ECB
:10121000F74F8591949190936700809366001F5FCC
:1012200013701093650017B9369ADF91CF911F9113
:10123000FF90EF9008951F920F920FB60F92112416
:101240002F933F934F935F938F939F93EF93FF93CE
:1012500020916C0030916D0080916A0090916B003C
:10126000820F931F90936D0080936C002091680013
:10127000309169008091660090916700820F931F02
:1012800090936900809368008217930720F410926E
:101290006D0010926C0040916C0050916D0086E0E2
:1012A000569547958A95E1F7411582E0580728F051
:1012B0002FEF33E0241B350B01C09A01E091700041
:1012C000F0917100E20FF31F8491E0916E00F091B4
:1012D0006F00E20FF31FE491E80F4115524008F44C
:1012E000E195EEBDFF91EF919F918F915F914F91AD
:1012F0003F912F910F900FBE0F901F90189580B7C0
:10130000807F80BF80B7806880BF8CB580648CBDD3
:101310008FEF8DBD80B7876080BF08951F920F92B9
:101320000FB60F9211242F933F938F939F93AF93F8
:10133000BF9380917D0090917E00A0917F00B0913D
:10134000800030917C0026E0230F2D3730F029E813
:10135000230F0396A11DB11D03C00296A11DB11D4F
:1013600020937C0080937D0090937E00A0937F006B
:10137000B09380008091810090918200A0918300C1
:10138000B09184000196A11DB11D809381009093BE
:101390008200A0938300B0938400BF91AF919F918E
:1013A0008F913F912F910F900FBE0F901F90189526
:1013B0008330910528F0880F991F04970197F1F762
:1013C00008958AB582608ABD8AB581608ABD83B777
:1013D000887F836083BF789489B7826089BF8FDFFD
:1013E00086B18877866886B9379A08958F7090910C
:1013F00085009295990F990F907C892B87B987B1B9
:101400009091850092FB222720F930E094E0220F92
:10141000331F9A95E1F7282B27B9369A3699FECFD4
:1014200084B125B190E0922B0895CF93DF9387FF8D
:1014300011C08F7741F0813041F0823041F083302C
:1014400041F08FEF07C085E005C082E003C084E073
:1014500001C083E090E0FC01E25EFF4E2491FC01BC
:10146000EC5DFF4E8491882361F190E0880F991F15
:10147000FC01E05DFF4EC591D491FC01E65DFF4E9D
:10148000A591B491611109C09FB7F8948881209506
:1014900082238883EC912E230BC0623061F49FB7C6
:1014A000F8943881822F809583238883EC912E2BAA
:1014B0002C939FBF06C08FB7F894E8812E2B28830A
:1014C0008FBFDF91CF91089581B781BF7ADFCFDDE4
:0814D00038DEFECFF894FFCFD7
:0214D8002300EF
:00000001FF
